:0C800000F8B500BFF8BC08BC9E467047F5
:10800C0008B50021044601F08FFC044B1868C36BC3
:10801C0003B19847204601F05FFD00BFF49A0000C1
:10802C00024B13B1024801F0EBBC7047000000009A
:10803C00199A000010B5054C237833B9044B13B1D1
:10804C000448AFF300800123237010BD4C9F010046
:10805C0000000000009B0000084B10B51BB1084944
:10806C000848AFF300800848036803B910BD074BFC
:10807C00002BFBD0BDE81040184700BF00000000EB
:10808C00509F0100009B0000109B010000000000AD
:10809C00154B002B08BF134B9D46A3F5803A0021CE
:1080AC008B460F461348144A121A01F0EFFB0F4B84
:1080BC00002B00D098470E4B002B00D09847002087
:1080CC00002104000D000D48002802D00C4801F0DE
:1080DC0097FC01F0B3FB2000290000F039F8FFF702
:1080EC008FFF00BF0000080000000000000000002F
:1080FC00000000004C9F0100BCA501000D9A00007F
:10810C00199A000080B582B000AF104B1B7818464E
:10811C0001F0BAFA0346FB80FB88002B02D0082B37
:10812C0011D100BF094B1B7814220021184601F015
:10813C00D1F8064B1B780821184601F0BBFA034B0B
:10814C00FF221A7000BF0837BD4680BDB9A50100DB
:10815C0080B582B002AF00F0F3F800230093002347
:10816C0000220121044800F06DFD00F01DF90023F0
:10817C001846BD4680BD00BF1181000080B483B09D
:10818C0000AF0346FB80024AFB881380FEE700BF6A
:10819C00689F010080B400AF00BFBD4680BC704733
:1081AC0080B400AF034B00221A7000BFBD4680BCE8
:1081BC00704700BF34A0010080B500AF104B1B7896
:1081CC00632B02D95320FFF7D9FF0D4B1B781A46AE
:1081DC000B4B19780B4B03F81210094B1B78094AFF
:1081EC005B001344FF225A70054B1B780133DAB243
:1081FC00034B1A70024B1B78013BDBB2184680BD57
:10820C0034A001006C9F010080B483B000AF034622
:10821C00FB71FB79044A5B0013445B7818460C37FE
:10822C00BD4680BC704700BF6C9F010080B400AF9E
:10823C00024B1B781846BD4680BC70471C9B010046
:10824C0090B583B000AF0446084611461A46234643
:10825C00FB710346BB710B467B7113467B800A4B4B
:10826C001B78BA799A420BD2BB79084A5B0013444B
:10827C00FF225A707B887A79B979F87901F064F821
:10828C0000BF0C37BD4690BD34A001006C9F0100AF
:10829C0080B582B000AF0346FB71054AFB791370C1
:1082AC00FB79184601F046F900BF0837BD4680BD82
:1082BC001C9B010080B483B000AF03460A46FB71DF
:1082CC001346BB71FB79054A5B001344BA795A70AB
:1082DC0000BF0C37BD4680BC704700BF6C9F0100CF
:1082EC000FB480B582B000AF07F114033B60134BA1
:1082FC001B78184600F0A4FF3B681A1D3A601B68F7
:10830C007B600E4B18787B68D9B23B7C002B0CBF82
:10831C0001230023DBB21A46002301F015F83B6859
:10832C001A1D3A601B687B607B68FF2BE9D100BF8C
:10833C000837BD46BDE8804004B07047B9A50100C0
:10834C0080B500AF094BFF221A70094BFF221A703F
:10835C00084B00221A7000F065FBFFF721FF00F0BC
:10836C0067F800F01FFC00BF80BD00BFB9A501007D
:10837C00BBA50100BAA5010080B500AF094BFF22D7
:10838C001A7000F055FD03461A46064B1A70054B41
:10839C001B78FF2B02D001F057F901E0FFF7FAFE32
:1083AC0000BF80BDB9A5010080B500AF024B012212
:1083BC001A70FFF7E1FFFCE7BAA5010080B500AF2A
:1083CC000121002001F014F800BF80BD80B582B0FF
:1083DC0000AF0346FB71FB79002B04D0FB79012124
:1083EC00184601F005F800BF0837BD4680BD00BF38
:1083FC0080B582B000AF03460A46FB711346BB80C2
:10840C00FB79002B05D0BA88FB791146184600F091
:10841C00EFFF00BF0837BD4680BD00BF80B400AF82
:10842C00024B1B781846BD4680BC7047BAA50100AC
:10843C0080B483B000AF324B00221A700023FB7162
:10844C0055E02F4B1B7819462E4A0B469B000B44CC
:10845C009B00134400221A60294B1B781946294AA9
:10846C000B469B000B449B001344063300221A70EE
:10847C00234B1B781946234A0B469B000B449B004D
:10848C001344073300221A701D4B1B7819461D4AE2
:10849C000B469B000B449B001344083300221A70BC
:1084AC00174B1B781946174A0B469B000B449B0035
:1084BC001344043300221A80114B1B781946114ABD
:1084CC000B469B000B449B0013440C3300221A6098
:1084DC000B4B1B7819460B4A0B469B000B449B001D
:1084EC001344103300221A70FB790133FB71FB79B2
:1084FC00312BA6D900BF0C37BD4680BC704700BFDE
:10850C0020A4010038A0010090B585B000AFF86040
:10851C007B600B46FB7213463B81364B1B78312B31
:10852C0002D95A20FFF72AFE324B1B781946324AE1
:10853C000B469B000B449B001344FA681A602D4BAE
:10854C001B7819462C4A0B469B000B449B0013448A
:10855C00063301221A70274B1B781946264A0B4604
:10856C009B000B449B001344073300221A70214BD1
:10857C001B781946204A0B469B000B449B00134466
:10858C000833FA7A1A701B4B1B7819461A4A0B4699
:10859C009B000B449B00134404333A891A80154BFF
:1085AC001B781946144A0B469B000B449B00134442
:1085BC000C337A681A600F4B1B781C46FFF7FCFDD6
:1085CC00034619460C4A23469B0023449B00134444
:1085DC0010330A461A70074B1B780133DAB2054B7D
:1085EC001A70044B1B78013BDBB218461437BD469E
:1085FC0090BD00BF20A4010038A0010080B485B05C
:10860C0000AF78600023FB7310E0FA7B0D49134632
:10861C009B0013449B000B440C331A687B689A42F2
:10862C0001D1FB7B08E0FB7B0133FB73064B1B7812
:10863C00FA7B9A42E9D3FF2318461437BD4680BC17
:10864C00704700BF38A0010020A4010080B483B0A3
:10865C0000AF0346FB710A4B1B78FA799A4201D39F
:10866C00FF2308E0FA79074913469B0013449B004B
:10867C000B4410331B7818460C37BD4680BC704732
:10868C0020A4010038A0010080B584B000AFF860D0
:10869C00084611461A460346FB720B463B811346AD
:1086AC00FB800E4B1B78FA7A9A4201D3002311E01F
:1086BC00FB683A899A80FB68FA88DA80FA7A134662
:1086CC009B0013449B00064A1344F968184600F0BB
:1086DC0009F8034618461037BD4680BD20A401009A
:1086EC0038A0010080B487B000AF786039607B6837
:1086FC001B7A002B01D1002334E07B689B79FB7241
:10870C007B68DB79FA7A9A4201D103232AE07B68F1
:10871C009B88FB823B683B617B681B681946FB7A34
:10872C00FA8A02FB03F30B44FB6007E0FB685A1C5C
:10873C00FA603A69511C396112781A70FB8A5A1E18
:10874C00FA82002BF2D1FB7A0133FB727B681A7A26
:10875C00FB7AB3FBF2F102FB01F29B1ADAB27B68F3
:10876C009A71052318461C37BD4680BC704700BF64
:10877C0080B588B000AF78600B46FB70574B1B7808
:10878C00FA789A4201D30023A4E0FA7813469B00AE
:10879C0013449B00524A13443B613B69DB79BB7623
:1087AC00BB7E01333A69127A93FBF2F102FB01F2C0
:1087BC009B1A3A699279934201D102238AE0386973
:1087CC0000F0F4F80346012B01D1022382E00023D0
:1087DC00FB763B699B883B8375E0BB7E01333A6932
:1087EC00127A93FBF2F102FB01F29B1ABB763B6906
:1087FC001B681946BB7E3A8B02FB03F30B44FB61EF
:10880C007B687B6107E07B695A1C7A61FA69511CB1
:10881C00F96112781A703B8B5A1E3A83002BF2D1F5
:10882C003B699B883B837B68DB88002B14BF01234F
:10883C000023DBB2FB737B689B88002B0CBF0123EE
:10884C000023DBB2BB73BB7B002B08D00123FB7670
:10885C00FB7B002B03D07B68DA887B689A80BB7B20
:10886C00002B05D0FB7B002B2DD0BB7B002B2AD003
:10887C003B691B681A463B699B7919463B8B03FB8A
:10888C0001F313447B617B68FB6107E07B695A1C35
:10889C007A61FA69511CF96112781A703B8B5A1E75
:1088AC003A83002BF2D13B699B883B833B699B79D4
:1088BC0001333A69127A93FBF2F102FB01F29B1A33
:1088CC00DAB23B699A71FB7E002B86D03B69BA7E8B
:1088DC00DA71042318462037BD4680BD20A4010060
:1088EC0038A0010080B586B000AF0346FB71FA7961
:1088FC0013469B0013449B002B4A13443B613B697A
:10890C00DB7901333A69127A93FBF2F102FB01F243
:10891C009B1AFB753B699B79FB733B699B88BB81FD
:10892C0039E03B691B681946FB7DBA8902FB03F3EE
:10893C000B44BB60BB689B88002B22D0BB689B8818
:10894C00013B9AB2BB689A80BB689B88002B18D1FC
:10895C00FA79154913469B0013449B000B441033C2
:10896C001B781846FFF794FCFA790F4913469B00C5
:10897C0013449B000B4410331B78FE211846FFF761
:10898C0099FCFB7D01333A69127A93FBF2F102FBFD
:10899C0001F29B1AFB75FA7DFB7B9A42C1D100BF99
:1089AC001837BD4680BD00BF38A0010080B487B029
:1089BC0000AF78607B689B79BB747B689B883B823B
:1089CC000123FB747B68DB7901337A68127A93FBA1
:1089DC00F2F102FB01F29B1A7B6119E07B681B68C8
:1089EC0019463B8A7A6902FB03F30B44FB60FB6874
:1089FC009B88002B02D10023FB740DE07B690133B3
:108A0C007A68127AB3FBF2F102FB01F29B1A7B61DA
:108A1C00BA7C7B699A42E1D1FB7C18461C37BD4677
:108A2C0080BC704780B400AF034B00221A7000BFAB
:108A3C00BD4680BC704700BFECA4010080B582B07D
:108A4C0000AF03460A46FB711346BB71114B1B78F2
:108A5C00632B02D93F20FFF791FB0E4B1B78194675
:108A6C000D4AFB7902F811300A4B1B780A4A5B005D
:108A7C001344BA795A70074B1B780133DAB2054BA1
:108A8C001A70044B1B78013BDBB218460837BD4605
:108A9C0080BD00BFECA4010024A4010080B582B00D
:108AAC0000AF0346FB71FB79002B14BF012300239D
:108ABC00DBB2FB71FB7919460120FFF7BFFF0346C0
:108ACC0018460837BD4680BD80B582B000AF03465E
:108ADC000A46FB711346BB71BA79FB7911461846ED
:108AEC00FFF7ACFF034618460837BD4680BD00BFF4
:108AFC0080B483B000AF0346FB71FB79064A5B0080
:108B0C0013445B78002B14BF01230023DBB21846FF
:108B1C000C37BD4680BC704724A4010080B483B0E0
:108B2C0000AF0346FB71FB790B4A5B0013445B7887
:108B3C00002B0BD0FA79084953000B445B78013BAE
:108B4C00D8B2054953000B4402465A7000BF0C378B
:108B5C00BD4680BC704700BF24A4010080B483B024
:108B6C0000AF0346FB71FB790D4A5B0013445A7846
:108B7C00FB790B4911F813309A420BD2FA79084958
:108B8C0053000B445B780133D8B2054953000B44B6
:108B9C0002465A7000BF0C37BD4680BC704700BF00
:108BAC0024A4010080B483B000AF244B00221A70BF
:108BBC000023FB7139E0FA7913469B0013449B00A8
:108BCC001F4A13443B603B68FF22DA733B68FF2269
:108BDC00DA803B6800225A733B680022DA723B68E9
:108BEC0000225A713B68FF221A733B6800221A71EB
:108BFC003B6800221A603B68FF229A723B68002295
:108C0C001A813B6800229A730023BB7107E0BB7981
:108C1C003A681344FF221A74BB790133BB71BB79D8
:108C2C00002BF4D0FB790133FB71FB79092BC2D9F2
:108C3C0000BF0C37BD4680BC704700BFB8A5010013
:108C4C00F0A4010080B586B000AFF8607A601A46D7
:108C5C000B46FB721346BB72FFF7E0FB0346002B7F
:108C6C0002D08120FFF78AFA364B1B78092B02D9E8
:108C7C008220FFF783FAFB68002B02D18320FFF7D9
:108C8C007DFA304B1B78FB7511E0FB7D013BFB75CE
:108C9C00FA7D2D4913469B0013449B000B440B3368
:108CAC001B78FA7A9A4202D18A20FFF767FAFB7D89
:108CBC00002BEAD1234B1B781A4613469B00134416
:108CCC009B00214A13443B611E4B1A783B699A72F4
:108CDC003B69FA7ADA723B6905221A713B69052203
:108CEC005A713B6900221A733B690022DA803B6996
:108CFC00FA681A603B6900229A733B6900221A8158
:108D0C00BB7A002B0AD03A8CB97AFB687868FFF7EB
:108D1C00FBFB03461A463B695A7302E03B69FF2290
:108D2C005A73084B1B78184600F08AFA054B1B78CF
:108D3C000133DAB2034B1A703B699B7A1846183729
:108D4C00BD4680BDB8A50100F0A4010080B584B07B
:108D5C0000AF7860786800F035F80346FB73FB7B56
:108D6C00FF2B02D1E020FFF709FAFA7B05491346E5
:108D7C009B0013449B000B4404331B78184610379C
:108D8C00BD4680BDF0A4010080B582B000AF0346A3
:108D9C00FB710A4B1B78FA799A4202D3E520FFF754
:108DAC00EDF9FA79064913469B0013449B000B44DA
:108DBC0004331B7818460837BD4680BDB8A50100A2
:108DCC00F0A4010080B485B000AF78600023FB7381
:108DDC000FE0FA7B0C4913469B0013449B000B4499
:108DEC001A687B689A4201D1FB7B08E0FB7B01335C
:108DFC00FB73064B1B78FA7B9A42EAD1FF23184689
:108E0C001437BD4680BC7047F0A40100B8A5010022
:108E1C0080B582B000AF78607868FFF7D3FF034667
:108E2C00184600F0D5F900BF0837BD4680BD00BF1D
:108E3C0080B485B000AFFF237B73FF233B7300230B
:108E4C00FB811BE0FA8913469B0013449B00114ADB
:108E5C001344BB60BB68DB7AFB71BB681B79BB71CD
:108E6C00BB79052B07D1FA793B7B9A4203D2FB796C
:108E7C003B73FB897B73FB890133FB81064B1B78AE
:108E8C009BB2FA899A42DDD17B7B18461437BD46DA
:108E9C0080BC7047F0A40100B8A5010080B483B079
:108EAC0000AF254B1B78FF2B02D10023FB800CE07D
:108EBC00214B1B789BB20133FB80204B1B789BB260
:108ECC00FA889A4201D30023FB8000237B71002394
:108EDC003B71FA881A4913469B0013449B000B44C0
:108EEC0004331B78052B06D1FB88DAB2124B1A70AF
:108EFC0001237B7112E0FB880133FB800F4B1B7845
:108F0C009BB2FA889A4201D10023FB803B79013352
:108F1C003B710A4B1B783A799A42DAD17B79002B58
:108F2C0002D1054BFF221A70034B1B7818460C37E5
:108F3C00BD4680BC704700BFBBA50100B8A50100B1
:108F4C00F0A4010080B487B000AF0346FB71FF238F
:108F5C00FB75FF237B750023BB7524E0BA7D13469C
:108F6C009B0013449B001B4A13443B613B691B79D8
:108F7C00012B06D13B691B7BFA799A4201D1012363
:108F8C0000E00023FB73FB7B012B09D13B69DB7AEF
:108F9C00FA7D9A4204D93B69DB7AFB75BB7D7B7504
:108FAC00BB7D0133BB750C4B1B78BA7D9A42D5D176
:108FBC007B7DFF2B09D07A7D064913469B00134419
:108FCC009B000B44043305221A7000BF1C37BD46AE
:108FDC0080BC7047F0A40100B8A5010080B487B034
:108FEC0000AF0346FB710023BB750023FB751DE02E
:108FFC00FA7D13469B0013449B00124A13443B61B9
:10900C003B691B79012B06D13B691B7BFA799A4290
:10901C0001D1012300E00023FB73FB7B012B02D168
:10902C000123BB7507E0FB7D0133FB75064B1B78F9
:10903C00FA7D9A42DCD1BB7D18461C37BD4680BCFC
:10904C00704700BFF0A40100B8A5010080B582B044
:10905C0000AF03460A46FB711346BB710E4B1B78DF
:10906C00FA799A4203D34FF4EA70FFF787F8BA798A
:10907C00FB791146184600F04DFBFA790749134667
:10908C009B0013449B000B44083300221A8000BF42
:10909C000837BD4680BD00BFB8A50100F0A4010093
:1090AC0080B582B000AF0346FB71084B1B78FA7990
:1090BC009A4203D34FF4EF70FFF760F8FB79184630
:1090CC0000F04CFB00BF0837BD4680BDB8A50100C1
:1090DC0080B584B000AF0346FB71214B1B78FA7945
:1090EC009A4203D34FF4F370FFF748F8FA791D490D
:1090FC0013469B0013449B000B4404331B78FB73F7
:10910C00FB7B072B28D0FB7B002B25D0FB7B012B7B
:10911C0014D1FA79134913469B0013449B000B445A
:10912C00053305221A70FA790E4913469B00134435
:10913C009B000B44063300221A8009E0FA79094996
:10914C0013469B0013449B000B440533FA7B1A70A7
:10915C00FB79184600F018FB00BF1037BD4680BDE8
:10916C00B8A50100F0A4010080B582B000AF0346A1
:10917C00FB71154B1B78FA799A4203D34FF4FF70AD
:10918C00FEF7FCFFFA79114913469B0013449B0030
:10919C000B4404331B78002B12D1FA79F9790B4864
:1091AC000B469B000B449B0003440533187807497E
:1091BC0013469B0013449B000B44043302461A7065
:1091CC0000BF0837BD4680BDB8A50100F0A4010062
:1091DC0080B582B000AF0346FB71084B1B78FA795F
:1091EC009A4203D340F20720FEF7C8FFFB791846DA
:1091FC0000F00EFB00BF0837BD4680BDB8A50100CE
:10920C0080B582B000AF0346FB710B4B1B78FA792B
:10921C009A4203D340F20E20FEF7B0FFFA790749C9
:10922C0013469B0013449B000B440B331B781846CE
:10923C000837BD4680BD00BFB8A50100F0A40100F1
:10924C0080B485B000AF0346FB71FA7913469B00DE
:10925C0013449B000B4A1344BB60BB6800229A73F7
:10926C000123FB73FB7B013BFB73FB7BBA68134451
:10927C0000221A74FB7B002BF4D100BF1437BD46BF
:10928C0080BC7047F0A4010080B485B000AF0346E9
:10929C00FB710123BB730123FB73FB7B013BFB7352
:1092AC00FA79F97B0A4813469B0013449B0003444C
:1092BC000B4410331B78002B01D00023BB73FB7BBA
:1092CC00002BEAD1BB7B18461437BD4680BC7047D7
:1092DC00F0A4010080B582B000AF0346FB710B46D1
:1092EC00BB711346BB80164B1B78FA799A4203D399
:1092FC0040F23B20FEF742FFBB88002B03D14FF41A
:10930C000F70FEF73BFFFA790E4913469B0013448E
:10931C009B000B440F33BA791A70FA79094913463A
:10932C009B0013449B000B440833BA881A80FB79CA
:10933C00184600F03FFA00BF0837BD4680BD00BF9D
:10934C00B8A50100F0A4010090B585B000AF0446AB
:10935C00084611461A462346FB710346BB710B4661
:10936C007B7113467B80204B1B78FA799A4203D38E
:10937C0040F24920FEF702FFFA7913469B00134492
:10938C009B001A4A1344FB60BB79DB08FB72BB7968
:10939C0003F00703BB72FB7AFA7AF9680A44127C71
:1093AC0051B2BA7A012000FA02F252B20A4352B216
:1093BC00D1B2FA6813440A461A74FB687A799A7324
:1093CC007B88002B09D0FB680022DA73FB687A8853
:1093DC001A81F86800F010FA02E0F86800F000FA60
:1093EC0000BF1437BD4690BDB8A50100F0A4010024
:1093FC0080B584B000AF03460A46FB711346BB80B0
:10940C000023FB7388E0FA7B484913469B00134406
:10941C009B000B4404331B78BB73BB7B022B02D029
:10942C00BB7B042B44D1FA7B404913469B0013446D
:10943C009B000B440F331B78FA799A424FD1FA7B7D
:10944C003A4913469B0013449B000B4408331B887A
:10945C00BA889A4215D3FA7B344913469B001344BD
:10946C009B000B44083300221A80BB7B042B03D1D6
:10947C00FB7B1846FFF7E4FEFB7B184600F06EF909
:10948C002DE0FA7BF97B29480B469B000B449B0093
:10949C00034408331988BB88CB1A98B22349134666
:1094AC009B0013449B000B44083302461A8016E0C1
:1094BC00BB7B012B13D1FA7B1C4913469B00134435
:1094CC009B000B4408331B88013398B21749134691
:1094DC009B0013449B000B44083302461A80FB7913
:1094EC00002B16D1FA7B114913469B0013449B00A9
:1094FC000B440D331B78FF2B0BD0FA7B0B49134617
:10950C009B0013449B000B440D331B781846FFF74C
:10951C00E9F9FB7B0133FB73054B1B78FA7B9A4211
:10952C007FF471AF00BF1037BD4680BDF0A40100C1
:10953C00B8A50100B0B584B000AF0346FB71FB7950
:10954C00DB087B73FB7903F007033B730023FB738E
:10955C006CE0FA7B3A4913469B0013449B000B4486
:10956C0004331B78FB720023BB73FB7A032B02D0F2
:10957C00FB7A042B01D10123BB73FA7B797B304836
:10958C0013469B0013449B0003440B4410331B787D
:10959C005AB23B7B012101FA03F35BB213405BB27D
:1095AC00BB72BB7A002B3ED0BB7B002B3BD0FA7B33
:1095BC00787BF97B7C7B224D0B469B000B449B00FC
:1095CC002B44234410331B7859B23B7B012404FAFF
:1095DC0003F35BB2DB435BB20B405BB2DCB218490A
:1095EC0013469B0013449B000B4403441033224648
:1095FC001A70FA7B124913469B0013449B000B44D0
:10960C000E331B78002B06D1FB7B1846FFF73CFE74
:10961C000346002B07D0FB7B1846FFF711FEFB7BA4
:10962C00184600F09BF8FB7B0133FB73054B1B7852
:10963C00FA7B9A428DD100BF1037BD46B0BD00BF3A
:10964C00F0A40100B8A5010080B500AF0B4B1A784F
:10965C000B4B1B789A4203D340F2A920FEF78EFDE8
:10966C00064B1B781946074A0B469B000B449B0084
:10967C0013441B68984700BF80BD00BFB9A501000B
:10968C00B8A50100F0A4010080B483B000AF03467C
:10969C00FB71FA79064913469B0013449B000B445B
:1096AC0006331B8818460C37BD4680BC704700BF7C
:1096BC00F0A4010080B483B000AF03460A46FB71EE
:1096CC001346BB80FA79074913469B0013449B0051
:1096DC000B440633BA881A8000BF0C37BD4680BCD9
:1096EC00704700BFF0A4010080B483B000AF034604
:1096FC00FB71FA79064913469B0013449B000B44FB
:10970C000D331B7818460C37BD4680BC704700BF24
:10971C00F0A4010080B483B000AF03460A46FB718D
:10972C001346BB71FA790C4913469B0013449B00FA
:10973C000B44043301221A70FA79074913469B0033
:10974C0013449B000B440C33BA791A7000BF0C37CE
:10975C00BD4680BC704700BFF0A4010080B483B04C
:10976C0000AF0346FB71FA79064913469B0013447C
:10977C009B000B44043305221A7000BF0C37BD4606
:10978C0080BC7047F0A4010080B483B000AF0346E6
:10979C00FB71FA79064913469B0013449B000B445A
:1097AC00043300221A7000BF0C37BD4680BC7047D2
:1097BC00F0A4010080B483B000AF0346FB71FA79CA
:1097CC00064913469B0013449B000B4404330222AE
:1097DC001A7000BF0C37BD4680BC7047F0A4010066
:1097EC0080B483B000AF78607B6803221A7100BF2D
:1097FC000C37BD4680BC704780B483B000AF786036
:10980C007B6804221A7100BF0C37BD4680BC7047C0
:10981C0080B483B000AF0346FB71FA790649134656
:10982C009B0013449B000B44043307221A7000BFA7
:10983C000C37BD4680BC7047F0A4010070B50F4ECC
:10984C000F4D761BB61018BF002405D0013455F807
:10985C00043B9847A642F9D10A4E0B4DFEF7CAFBC2
:10986C00761BB61018BF002406D0013455F8043B03
:10987C009847A642F9D170BD70BD00BF049B010092
:10988C00049B01000C9B0100049B010070B4840735
:10989C0046D0541E002A41D0CDB2034602E0621ECF
:1098AC00E4B3144603F8015B9A07F8D1032C2ED9C4
:1098BC00CDB245EA05250F2C45EA054519D92646B2
:1098CC0003F11002103E0F2E42F8105C42F80C5CB3
:1098DC0042F8085C42F8045C02F11002F2D8A4F1E0
:1098EC00100222F00F0204F00F041032032C134468
:1098FC000DD91E462246043A032A46F8045BFAD8D0
:10990C00221F22F003020432134404F003042CB18E
:10991C00C9B21C4403F8011BA342FBD170BC7047B5
:10992C0014460346C2E700BF2DE9F04F0E46324BFA
:10993C0085B01B680190029303F5A4730393029BFB
:10994C00D3F848713FB3DDF80CA04FF00109D346B2
:10995C007C68651E0ED4013407EB84044FF00008BC
:10996C00E6B1D4F800319E4218D0013D6B1CA4F135
:10997C000404F5D1214B73B17B68002B36D13B68C5
:10998C00002B34D03846CBF80030AFF30080DBF836
:10999C000070002FDCD105B0BDE8F08F7B68226829
:1099AC00013BAB420CBF7D60C4F80080002ADCD0C8
:1099BC00D7F8881109FA05F30B42D7F804A00FD099
:1099CC00D7F88C110B420DD1D4F880100198904728
:1099DC007B685345B3D1DBF80030BB42C5D0AEE752
:1099EC009047F5E7D4F880009047F1E73B68BB4619
:1099FC001F46002FACD1CEE7F49A00000000000007
:109A0C00002301461A46184600F014B838B5074D25
:109A1C00074C2C1BA41005D0013C55F8043D98476D
:109A2C00002CF9D1BDE8384000F058B8109B01006B
:109A3C000C9B01002DE9F047254C0646256888460D
:109A4C00D5F8484192469946C4B360681F2817DC84
:109A5C00411C76B104EB8003C3F888A0D4F888517C
:109A6C00012282401543022EC4F88851C3F8089194
:109A7C001ED0831C6160002044F82380BDE8F08771
:109A8C00144B03B34FF4C870AFF300800446D0B14D
:109A9C00D5F84831002784E888003846C5F8484195
:109AAC000121C4F88871C4F88C71002EE1D0D1E783
:109ABC00D4F88C311A43C4F88C21DAE705F5A67476
:109ACC00C5F84841C1E74FF0FF30BDE8F08700BF53
:0C9ADC00F49A000000000000FEE700BF4C
:0C9AE800F8B500BFF8BC08BC9E467047F3
:049AF400209B0100B2
:089AF800A4E5FF7F010000005E
:049B00000000000061
:020000021000EC
:089B04002D80000065800000C7
:049B0C004180000094
:049B10000000000051
:109B180000000000FF000000000000000C9E010093
:109B2800749E0100DC9E010000000000000000009F
:109B3800000000000000000000000000000000001D
:109B4800000000000000000000000000000000000D
:109B580000000000000000000000000000000000FD
:109B680000000000000000000000000000000000ED
:109B780000000000000000000000000000000000DD
:109B880000000000000000000000000000000000CD
:109B980000000000000000000000000000000000BD
:109BA80000000000000000000000000000000000AD
:109BB800000000000000000000000000000000009D
:109BC80001000000000000000E33CDAB34126DE63A
:109BD800ECDE05000B0000000000000000000000A3
:109BE800000000000000000000000000000000006D
:109BF800000000000000000000000000000000005D
:109C0800000000000000000000000000000000004C
:109C1800000000000000000000000000000000003C
:049F4800209B010059
:040000030000809DDC
:00000001FF
